:10074B005A4E58594A4B5A5854003033313100C421
:10075B00A3CABDD2BB00B3A3CEC200383030003326
:10076B004B4700C4A3CABDB6FE00C4A3CABDC8FE96
:10077B00003230B6C8003330B6C8003430B6C800CB
:10078B0031303030003132303000354B4700384B90
:10079B0047002020202000D6D8C1BF3A000100001E
:1007AB000001010000000100000001010000000138
:1007BB000000000101000000010100000101000028
:1007CB000100000001000001010000010000010117
:0D07DB00000001000001010000010000000D
:100AC200016301016401016501075401370D1D0C29
:100AD20005140345D6DC00045D00000000043F005D
:100AE200000000044C00000000045000000000045C
:100AF20021000000C802610014023B0000C1000195
:100B0200260801250A023D0000022A001E023100C9
:090B120005025B00000233000142
:040F94007FD07E0785
:0A0F9800EF1FAC0670011E4C601242
:100FA200E4F50EE50EC394FA50EC00000000050EC5
:020FB20080F1CC
:010FB400221A
:10106800E4F580C295D296D2977F01FE120F98E5DB
:0810780080339202C297A2022C
:01108000224D
:100EE500AD0712106840FBC295C296C29700008DEF
:100EF500807F017E00120F98D2977F017E00120F2E
:040F050098C29722D5
:0B0E90007C007D0A12019AEF2430FF65
:100E9B00AD0712106840FBD295C296C2978D807F2A
:100EAB00017E00120F98D2977F017E00120F98C21D
:020EBB0097227C
:100E60007F34120EE57F057E00120F987F30120E40
:100E7000E57F057E00120F987F0C120EE57F057E40
:100E800000120F987F01120EE57F057E00020F9879
:100FB500EF70047F808013BF01047F90800CBF0217
:100FC500047F888005BF03027F98EF2DFF020EE5A1
:0A0DF4007BFF7A07794BE4FDFCFE5B
:060DFE008B098A0A890B33
:100E0400120FB5E4F50CF50DAB09AA0AA90B850D73
:100E140082850C8312016DFF600D120E9B050DE59A
:070E24000D70E5050C80E1F3
:010E2B0022A4
:10069E007F01120EE57F02120DF47BFF7A0779556A
:1006AE00E4FDFC7F03FE120DFE120F947F01120E6D
:1006BE00E57F01120DF47BFF7A077955E4FDFC7F8F
:1006CE0002FE120DFE120F947F01120EE57BFF7AD1
:1006DE0007794BE4FDFCFFFE120DFE7BFF7A0779D6
:1006EE0055E4FDFC7F01FE120DFE120F947F0112E8
:1006FE000EE57BFF7A07794BE4FDFC7F03FE120DBE
:10070E00FE7BFF7A077955E4FDFCFFFE120DFE120B
:10071E000F947F01120EE57BFF7A07794BE4FDFC07
:10072E007F02FE120DFE7BFF7A077955E4FDFC7FFA
:0D073E0003FE120DFE120F947F01020EE566
:1010C100E4FEC2B7EF1392B6EFC313FFD2B70EBE61
:0210D10008F025
:0110D30022FA
:100F0900C2B500C2B700D2B5001210C1ED75F00A22
:100F190084C454F0FFED75F00A84E5F04FFF121018
:040F2900C1C2B5226A
:100CAA00E4FDC2B500C2B700D2B5001210C1E4FF1C
:100CBA00C2B7EDC313FD30B603430580D2B70FBFE9
:100CCA0008EEC2B500C2B5C2B700D2B700C2B600BC
:100CDA00D2B600EDC4540FFFED540FFEEF75F00AC3
:030CEA00A42EFF36
:010CED0022E4
:100F2D007C80E4FD7F8E120F09E4FBAF0474542B1B
:100F3D00F8E6FD120F090C0C0BBB07EF7D807F8EC1
:030F4D00020F0987
:100BCC007C81E4FD7F8E120F09E4FBAF04120CAAAA
:100BDC0074542BF8A6070C0C0BBB07EF7D807F8E93
:100BEC00120F09752F00855A30754A0085584B75C0
:100BFC00370085573875390085563A754300855549
:0D0C0C0044753500855436752D0085592E30
:010C190022B8
:100A6700E4FDFF120FB5AE39AF3A120E90AE39AFB3
:100A77003A7C007D0A12019AED2430FF120E9B7F0B
:100A87003A120E9BAE43AF44120E90AE43AF447C76
:100A9700007D0A12019AED2430FF120E9B7F3A1255
:100AA7000E9BAE35AF36120E90AE35AF367C007D5D
:0B0AB7000A12019AED2430FF020E9B92
:1004BE00EF14603214605714607B14700302056AE7
:1004CE00147003020591240560030205C830010B68
:1004DE000530E530705D052F0205C1E53015307031
:1004EE0002152F0205C130010A054BE54B700C05B4
:1004FE004A8008E54B154B7002154AD3E54B940C18
:10050E00E54A94004005E4F54AF54B0205C1300179
:10051E000A0538E538700C05378008E5381538704F
:10052E00021537D3E538941FE53794004005E4F5FE
:10053E0037F538807E30010A053AE53A700C0539F8
:10054E008008E53A153A70021539D3E53A9417E565
:10055E003994004005E4F539F53A805730010A0523
:10056E0044E544700C05438008E5441544700215BB
:10057E0043D3E544943BE54394004005E4F543F54D
:10058E0044803030010A052EE52E700C052D8008B2
:10059E00E52E152E7002152DD3E52E9407E52D941C
:1005AE00004005E4F52DF52EE52E452D7005F52DB3
:0B05BE00752E077FF47E01120F9822BB
:101097008F5A8D588B57851256851355853654852B
:0510A7001459020F2D99
:0C115300C2AF53E71843E70143E78022D6
:09116A0053E77FE4F5E6D2AF2261
:0B115F0012115375E64675E6B9002238
:10103000AD07AC06C2AF8CE3EDF5E453E5F843E54C
:0C1040000112115F12116AD2AFAFE22260
:1010AC00EE54FEFEF5E3E4F5E453E5F843E50312F4
:0510BC00115F02116A42
:10104C00AB07AA06C2AF8AE3EBF5E453E5F843E538
:0C105C00028DE212115F12116AD2AF2265
:03000300000022D8
:100DB700D292120003C2937F007E007D007C002048
:100DC70092FDE4FBD2937801120377C29330920D20
:100DD700EF2401FFE43EFEE43DFDE43CFC0BBB18C1
:0C0DE700E3D293ED6480FD120003C29380
:010DF30022DD
:100EBD007F007E201210AC754800852849AD497E13
:100ECD002012104CE527F549754800AD490F121059
:080EDD004CAD297F6002104CAE
:100F50007F017E201210307527008F287F0012102D
:100F600030EFFDE528F527EDF5287F601210308F72
:020F7000292234
:10108100120F50E5296401600C75270D7528AC75A8
:061091002901120EBD2230
:10097A007D037F02120FB5E47B107A27F9F8AF5393
:10098A00AE52AD51AC50120D32120E97E47B107A72
:10099A0027F9F8AF53AE52AD51AC50120D32AC003C
:1009AA00AD01AE02AF03E47BE87A03F9F8120D3227
:1009BA00120E977F2E120E9BE47BE87A03F9F8AFAA
:1009CA0053AE52AD51AC50120D32AC00AD01AE0275
:1009DA00AF03E47B64FAF9F8120D32120E977F6BBB
:0809EA00120E9B7F67020E9BB9
:1003B000120DB78F538E528D518C50C3E553954219
:1003C000F553E5529541F552E5519540F551E5500B
:1003D000953FF550E47F0AFEFDFCAB53AA52A951AC
:1003E000A850120225EC1200AEC004C005C006C021
:1003F00007AC27AD28E41200B3A804A905AA06ABF0
:1004000007D007D006D005D0041200111200ECC3AB
:10041000EF953CFFEE953BFEE48F538E52F551F580
:10042000507F107E27FDFCAB53AA52A951A850C3A0
:100430001203504034C290C2B57FF47E01120FD532
:10044000D290D2B57D037F02120FB57F2D120E9B85
:100450007F2D120E9B7F2E120E9B7F2D120E9B7FE7
:100460002D120E9B7F2D020E9BE5622524FFE56178
:100470003523FEE43522FDE43521FCAB53AA52A915
:1004800051A850D31203505027AE61AF62AB07AAF8
:1004900006C3E5249BFFE5239AFEE5229400FDE5D3
:1004A000219400FCAB53AA52A850C312035050062B
:0E04B000D290D2B58004C290C2B512097A2251
:10087400120DB78F4F8E4E8D4D8C4CE4F509D290EE
:100884007F647E00120FD57F647E00120FD50509A8
:10089400E509C3940A40E7120DB78F428E418D409B
:1008A4008C3FAE27AF28AB07AA06E4F9F8AF4FAEEA
:1008B4004EAD4DAC4C1202B0C004C005C006C0071A
:1008C400AE27AF28AB07AA06E4F9F8AF42AE41ADB4
:1008D40040AC3F1202B0A804A905AA06AB07D00792
:1008E400D006D005D004C31203667084C2907FF48E
:0708F4007E01120FD5D29026
:0108FB0022DA
:100FD500E4FDFCC3ED9FEC9E5015E4FBFA0BBB0052
:0F0FE500010AEB64794A70F50DBD00010C80E440
:010FF40022DA
:0E114500D2A9758901758AB0758C3CD28C22B6
:03000B00021013CD
:04101300C0E0C0D0A9
:10101700758AB0758C3C0508E508C3940A4005D26B
:041027000075080048
:05102B00D0D0D0E0323E
:100FF500D3EF9400EE940040147D727C00ED1D70DB
:0D100500011CED4C70F7EF1F70E61E80E33C
:0110120022BB
:0C0F7200F583E49324FF92B0AF267E00CC
:100F7E00EF1FAA0670011E4A600BE4FDEDC39473C9
:050F8E0050EE0D80F79C
:010F9300223B
:100B1C00E4F9E4FBEB25E025E024A8F582E43407B6
:100B2C00F583E49324FF92B2EB25E025E024A9F5AC
:100B3C0082E43407F583E49324FF9291EB25E025BE
:100B4C00E024AAF582E43407F583E49324FF92B100
:100B5C00EB25E025E024ABF582E43407120F720B91
:070B6C00BB08B109B908AB99
:010B7300225F
:100B7400E4F9E4FBEB25E025E024C8F582E434073E
:100B8400F583E49324FF92B2EB25E025E024C9F534
:100B940082E43407F583E49324FF9291EB25E02566
:100BA400E024CAF582E43407F583E49324FF92B188
:100BB400EB25E025E024CBF582E43407120F720B19
:070BC400BB08B109B908AB41
:010BCB002207
:0808FC00E55C6401455B7075C9
:10090400F509FD7F03120FB57F53120E9B7F43122F
:100914000E9B7F3A120E9BAE2AAF2B7C007D0A12EF
:1009240001EF7C007D0A1201EFED2430FF120E9BD3
:10093400AE2AAF2B7C007D0A1201EFED2430FF12AA
:100944000E9B7F707E17120FF5E52B152B70021589
:100954002AE52B452A7004F52AF52BE53215327069
:10096400021531E5324531700C120B1C75310075DE
:050974003205120B74B6
:01097900225B
:100CEE007BFF7A07795A7D057C00E4FFFE120DFE2C
:100CFE007BFF7A077961E4FDFC7F01FE120DFE7B1E
:100D0E00FF7A0779667D037C007F017E00120DFE5F
:100D1E007BFF7A07796A7D067C007F017E00120DCB
:040D2E00FE020B1C9A
:100C1A007BFF7A07796E7D057C00E4FFFE120DFEEC
:100C2A007BFF7A077961E4FDFC7F01FE120DFE7BF2
:100C3A00FF7A0779667D037C007F017E00120DFE34
:100C4A007BFF7A07796A7D067C007F017E00120DA0
:080C5A00FE752A00752B2D2206
:100C62007BFF7A0779757D057C00E4FFFE120DFE9D
:100C72007BFF7A077961E4FDFC7F01FE120DFE7BAA
:100C8200FF7A0779667D037C007F017E00120DFEEC
:100C92007BFF7A07796A7D067C007F017E00120D58
:080CA200FE752A00752B3C22AF
:0F1118007BFF7A07797CE4FDFC7F01FE020DFE70
:0F1127007BFF7A077981E4FDFC7F01FE020DFE5C
:0F1136007BFF7A077986E4FDFC7F01FE020DFE48
:1010D4007BFF7A07798B7D037C007F017E00020D04
:0110E400FE0D
:1010E5007BFF7A0779907D037C007F017E00020DEE
:0110F500FEFC
:1010F6007BFF7A0779957D067C007F017E00020DD5
:01110600FEEA
:101107007BFF7A0779997D067C007F017E00020DBF
:01111700FED9
:100D76007BFF7A07799D7D057C00E4FFFE120DFE60
:100D86007BFF7A07799DE4FDFC7F01FE120DFE7B59
:100D9600FF7A07799D7D047C007F017E00120DFE9F
:100DA6007BFF7A07799D7D067C007F017E00020D20
:010DB600FE3E
:100E2C0075A0F0E5A054F064F060287F057E0012F8
:100E3C000F98E5A054F064F06019E5A054F0FF445D
:100E4C000FF5A0E5A0540FFEE5A0540FFDBD0FF863
:030E5C00EF2EFF77
:010E5F002270
:1009F200120E2CEF12038A0A63B70A5ABB0A51BDC0
:100A02000A3DBE0A60D70A57DB0A4EDD0A2FDE0A0C
:100A12005DE70A54EB0A4BED0A21EE00000A667FFD
:100A220001120EE5755B00755C01020CEE7F01128E
:100A32000EE5755B00755C01020C1A7F01120EE572
:100A4200755B00755C01020C620211180210D4027F
:100A520010F60211270210E50211070211360200F8
:050A620000120B1C2234
:1005C9007F0A7E00120F98120E60121081121145D7
:1005D900120874120F2DC2AFD2AF12069E1208FC78
:1005E900120A67120BCCE47FB87E0BFDFCAB53AA51
:1005F90052A951A850C31203505010E47F64FEFD64
:10060900FCA8501203504003120CEEE47FB87E0B95
:10061900FDFCAB53AA52A951A850D3120350401163
:10062900E47F887E13FDFCA8501203505003120C7E
:100639001AE47F887E13FDFCAB53AA52A951A85036
:10064900D31203504003120C62C3E52B9402E52A2E
:1006590064809480500DC2B5C2907F0A7E00120F4B
:1006690098D290E52B452A700CF52AF52B052BE538
:100679002B7002052A7BFF7A0779A2E4FDFC7F0231
:10068900FE120DFE3000051203B0C200120E2C122C
:0506990009F20205E674
:10000E00020162EC5D046005E859047003020158B8
:10001E00120123580460F6EC4860F2EC7004FDFE09
:10002E00FF22C860DB2481C85009C39860025006C5
:10003E0002015F9850CAF582E9294B4A7005AB82DE
:10004E0002014E75F0007C1A7880C3EF9BEE9AED9C
:10005E0099400DC3EF9BFFEE9AFEED99FDE842F03D
:10006E00DC23ACF0D0E0FFD0E0FED0E0FDAB822090
:10007E00E7101BEB60BAEC2CFCEF33FFEE33FEED1A
:10008E0033FD02013AE803F830E705C0F075F000E1
:10009E00EF2FFFEE33FEED33FD40B830E7C280AAFE
:1000AE0075F020800E75F010800575F0087D007ECD
:1000BE00007F003392D530D503120342EC3340104B
:1000CE00EF33FFEE33FEED33FDEC33FCD5F0ED22D6
:0E00DE00E5F0247EA2D513CC92E7CDCEFF2212
:1000EC00EDD2E7CD33EC3392D524814006E4FFFE0C
:1000FC00FDFC22FCE4CFCECDCC24E0501174FF806B
:10010C00EDC3CC13CCCD13CDCE13CECF13CF047007
:07011C00F030D5DE020342C2
:10012300E9D2E7C933E833F892D5EDD2E7CD33EC22
:0701330033FC5002B2D5229B
:10013A00EC30E7100FBF000C0EBE00080DBD000426
:10014A000BEB6014A2D5EB13FCED92E7FD2274FFD2
:10015A00FCFDFEFF22E480F8A2D574FF13FC7D802B
:03016A00E480EF3F
:030000000207E80C
:0C07E800787FE4F6D8FD75816502082FCB
:10016D00BB010CE58229F582E5833AF583E0225047
:10017D0006E92582F8E622BBFE06E92582F8E22291
:0D018D00E58229F582E5833AF583E49322AB
:10019A00BC000BBE0029EF8DF084FFADF022E4CC49
:1001AA00F875F008EF2FFFEE33FEEC33FCEE9DEC12
:1001BA00984005FCEE9DFE0FD5F0E9E4CEFD22ED58
:1001CA00F8F5F0EE8420D21CFEADF075F008EF2FA2
:1001DA00FFED33FD4007985006D5F0F222C398FD93
:0501EA000FD5F0EA2230
:1001EF00C2D5EC30E709B2D5E4C39DFDE49CFCEE2B
:1001FF0030E715B2D5E4C39FFFE49EFE12019AC308
:10020F00E49DFDE49CFC800312019A30D507C3E402
:06021F009FFFE49EFE2299
:10022500E88FF0A4CC8BF0A42CFCE98EF0A42CFC78
:100235008AF0EDA42CFCEA8EF0A4CDA8F08BF0A4F6
:100245002DCC3825F0FDE98FF0A42CCD35F0FCEB55
:100255008EF0A4FEA9F0EB8FF0A4CFC5F02ECD391A
:0F026500FEE43CFCEAA42DCE35F0FDE43CFC2287
:1002740075F008758200EF2FFFEE33FECD33CDCC41
:1002840033CCC58233C5829BED9AEC99E5829840C4
:100294000CF582EE9BFEED9AFDEC99FC0FD5F0D6A1
:1002A400E4CEFBE4CDFAE4CCF9A88222B800C1B9CB
:1002B4000059BA002DEC8BF084CFCECDFCE5F0CB09
:1002C400F97818EF2FFFEE33FEED33FDEC33FCEB42
:1002D40033FB10D703994004EB99FB0FD8E5E4F9FD
:1002E400FA227818EF2FFFEE33FEED33FDEC33FCEA
:1002F400C933C910D7059BE99A4007EC9BFCE99ADE
:10030400F90FD8E0E4C9FAE4CCFB2275F010EF2F22
:10031400FFEE33FEED33FDCC33CCC833C810D70722
:100324009BEC9AE899400AED9BFDEC9AFCE899F85D
:0E0334000FD5F0DAE4CDFBE4CCFAE4C8F922F0
:100D3200C2D5E830E70FB2D5E4C39BFBE49AFAE4EC
:100D420099F9E498F8EC30E717B2D5120D6812025F
:100D5200B0E4C39BFBE49AFAE499F9E498F88003BF
:100D62001202B030D50DE4C39FFFE49EFEE49DFD68
:040D7200E49CFC22DF
:0E034200C3E49FFFE49EFEE49DFDE49CFC22CC
:10035000EB9FF5F0EA9E42F0E99D42F0EC6480C824
:0603600064809845F022C4
:10036600EB9FF5F0EA9E42F0E99D42F0E89C45F0ED
:010376002264
:10037700E8600FEFC333FFEE33FEED33FDEC33FCE4
:03038700D8F12288
:10038A00D083D082F8E4937012740193700DA3A302
:10039A0093F8740193F5828883E473740293686016
:0603AA00EFA3A3A380DF16
:1007F4000205C9E493A3F8E493A34003F68001F24D
:1008040008DFF48029E493A3F85407240CC8C33305
:10081400C4540F4420C8834004F456800146F6DFD4
:10082400E4800B0102040810204080900AC2E47E98
:10083400019360BCA3FF543F30E509541FFEE493C9
:10084400A360010ECF54C025E060A840B8E493A390
:10085400FAE493A3F8E493A3C8C582C8CAC583CABB
:10086400F0A3C8C582C8CAC583CADFE9DEE780BE73
:010B1B0000D9
:00000001FF
